:100000000C94FA000C94B6020C94E7020C941803BA
:100010000C9449030C947A030C94AB030C94DC030A
:100020000C940D040C942B010C942B010C942B01BB
:100030000C942B010C94B70A0C942B010C942B01FB
:100040000C942B010C942B010C942B010C942B0180
:100050000C942B010C942B010C942B010C943E045A
:100060000C942B010C94EF050C94DF060C942B01DF
:100070000C942B010C942B010C942B010C942B0150
:100080000C942B010C942B010C942B010C942B0140
:100090000C9423060C941E070C942B010C942B013A
:1000A0000C942B010C942B010C942B010C942B0120
:1000B0000C942B010C942B010C942B010C942B0110
:1000C0000C942B010C942B010C942B010C945706CF
:1000D0000C945D070C942B010C948B060C949C07DC
:1000E0000C942B010000090A02080B0C0D070603F3
:1000F00004010000000000000000000000000000FB
:1001000000000000000000000000000000000000EF
:1001100011100F00000000000000000000000000AF
:100120000000000000000000000001021020200874
:100130000810204010204080020102010804020142
:1001400001020408102040808040201008040201B1
:10015000800402018040201008040201080402010A
:100160000102040810204080010204081020408091
:1001700005050505070508080808020202020A0A23
:100180000808040404040101010101010101030341
:10019000030303030303040707070C0C0C0C0C0CEC
:1001A0000C0C0202020206060606060606060B0BE9
:1001B0000B0B0B0B0B0B00002200250028002B0063
:1001C0002E003100340002010000050108010B017E
:1001D00000002100240027002A002D0030003300F9
:1001E00001010000040107010A0102007A01D601A1
:1001F0005C08520B11241FBECFEFD1E2DEBFCDBF92
:1002000000E00CBF12E0A0E0B2E0E2E1F7E100E0C4
:100210000BBF02C007900D92AE37B107D9F715E0BA
:10022000AEE7B2E001C01D92A035B107E1F711E0E1
:10023000C4EFD1E000E006C022970109FE010BBF28
:100240000E94830BCC3ED10780E00807A9F70E94EB
:100250006D010C94870B0C94000064EF71E080E05A
:1002600090E00E94B20440E052EC61E070E081E076
:1002700093E00E94DB0764EF71E080E090E00E9471
:10028000B20461E072E081E093E00E94ED0963E274
:1002900072E081E093E00E94ED096EE372E081E09C
:1002A00093E00E94ED0964EF71E080E090E00C942F
:1002B000B20444E06CE271E08EE792E00E94A40197
:1002C00064EF71E080E090E00E94B20442E06CE2F2
:1002D00071E08EE792E00C94A4010E94D8040E9481
:1002E0002D01CEEBD6E00E9459012097E1F30E9448
:1002F000BE06F9CF6DE08EE792E00C947F01FC0121
:10030000862F6183108261E00C944702CF93DF93C4
:10031000EC0161E089810E947F0281E08883DF91A6
:10032000CF910895CF93DF93EC0160E089810E9423
:100330007F021882DF91CF910895FC012081211165
:100340000C9492010C948601AF92BF92CF92DF92EF
:10035000EF92FF921F93CF93DF931F92CDB7DEB73B
:100360005C01769567956B01E12CF12C10E011C0D2
:10037000C50149830E949D01C701B6010E94B204D4
:10038000C5010E949D01C701B6010E94B2041F5F12
:1003900049811413EDCF0F90DF91CF911F91FF9002
:1003A000EF90DF90CF90BF90AF9008956DE080E820
:1003B00092E00C947F01893009F443C088F48430C2
:1003C00029F138F4823059F1E8F4813009F05EC047
:1003D00023C0873061F188F5863009F057C023C00B
:1003E0008D3009F440C020F48B30A9F1C0F52DC048
:1003F000803109F442C0813109F443C08F3009F0E3
:1004000045C037C0809180008F7703C08091800005
:100410008F7D80938000089584B58F7702C084B566
:100420008F7D84BD08958091B0008F7703C0809147
:10043000B0008F7D8093B0000895809190008F77F9
:1004400007C0809190008F7D03C080919000877FCE
:100450008093900008958091A0008F7707C08091CD
:10046000A0008F7D03C08091A000877F8093A000B3
:100470000895809120018F7707C0809120018F7DA2
:1004800003C080912001877F809320010895CF933E
:10049000DF9390E0FC01E65DFE4F4491FC01E059E2
:1004A000FE4F8491882341F190E0880F991FFC0151
:1004B000E053FE4F25913491D9018A549E4FFC019F
:1004C00085919491C82FD92F9FB7F8948C91611181
:1004D00006C0409584238C938881842308C06230B1
:1004E00041F4242F209582238C938881842B888348
:1004F00002C0842B8C939FBFDF91CF9108950F93FF
:100500001F93CF93DF931F92CDB7DEB7282F30E034
:10051000F901EC51FF4F8491F901E65DFE4F149112
:10052000F901E059FE4F04910023D1F0882321F016
:1005300069830E94DB016981E02FF0E0EE0FFF1F6D
:10054000EA54FE4F85919491DC019FB7F8948C9109
:10055000611103C01095812301C0812B8C939FBF33
:100560000F90DF91CF911F910F9108951F920F92DD
:100570000FB60F9211240BB60F922F933F934F9308
:100580005F936F937F938F939F93AF93BF93EF93FB
:10059000FF938091860290918702892B29F0E09148
:1005A0008602F09187021995FF91EF91BF91AF916B
:1005B0009F918F917F916F915F914F913F912F917B
:1005C0000F900BBE0F900FBE0F901F9018951F92AB
:1005D0000F920FB60F9211240BB60F922F933F93E9
:1005E0004F935F936F937F938F939F93AF93BF933B
:1005F000EF93FF938091880290918902892B29F0D3
:10060000E0918802F09189021995FF91EF91BF91D5
:10061000AF919F918F917F916F915F914F913F919A
:100620002F910F900BBE0F900FBE0F901F9018953B
:100630001F920F920FB60F9211240BB60F922F93A9
:100640003F934F935F936F937F938F939F93AF935A
:10065000BF93EF93FF9380918A0290918B02892B35
:1006600029F0E0918A02F0918B021995FF91EF91A8
:10067000BF91AF919F918F917F916F915F914F91BA
:100680003F912F910F900BBE0F900FBE0F901F90B8
:1006900018951F920F920FB60F9211240BB60F925E
:1006A0002F933F934F935F936F937F938F939F937A
:1006B000AF93BF93EF93FF9380918C0290918D0243
:1006C000892B29F0E0918C02F0918D021995FF9110
:1006D000EF91BF91AF919F918F917F916F915F91BA
:1006E0004F913F912F910F900BBE0F900FBE0F9027
:1006F0001F9018951F920F920FB60F9211240BB6F0
:100700000F922F933F934F935F936F937F938F93AA
:100710009F93AF93BF93EF93FF9380918202909149
:100720008302892B29F0E0918202F09183021995CE
:10073000FF91EF91BF91AF919F918F917F916F91B9
:100740005F914F913F912F910F900BBE0F900FBE75
:100750000F901F9018951F920F920FB60F921124B1
:100760000BB60F922F933F934F935F936F937F93AB
:100770008F939F93AF93BF93EF93FF9380918402E6
:1007800090918502892B29F0E0918402F0918502F5
:100790001995FF91EF91BF91AF919F918F917F91AB
:1007A0006F915F914F913F912F910F900BBE0F90E2
:1007B0000FBE0F901F9018951F920F920FB60F92B9
:1007C00011240BB60F922F933F934F935F936F9328
:1007D0007F938F939F93AF93BF93EF93FF938091FA
:1007E0008E0290918F02892B29F0E0918E02F09178
:1007F0008F021995FF91EF91BF91AF919F918F91CA
:100800007F916F915F914F913F912F910F900BBE10
:100810000F900FBE0F901F9018951F920F920FB65A
:100820000F9211240BB60F922F933F934F935F9328
:100830006F937F938F939F93AF93BF93EF93FF93A8
:100840008091900290919102892B29F0E091900281
:10085000F09191021995FF91EF91BF91AF919F9106
:100860008F917F916F915F914F913F912F910F9059
:100870000BBE0F900FBE0F901F9018951F920F92F6
:100880000FB60F9211242F933F938F939F93AF93A3
:10089000BF938091920290919302A0919402B091A3
:1008A000950230919A02232F2D5F2D3720F4019667
:1008B000A11DB11D05C0232F2A570296A11DB11DF0
:1008C00020939A028093920290939302A0939402B1
:1008D000B09395028091960290919702A091980210
:1008E000B09199020196A11DB11D8093960290933B
:1008F0009702A0939802B0939902BF91AF919F91F4
:100900008F913F912F910F900FBE0F901F901895D0
:100910000F931F939FB7F89400919602109197023E
:10092000209198023091990286B5A89B06C08F3F0E
:1009300021F00F5F1F4F2F4F3F4F9FBF322F212FAF
:10094000102F0027080F111D211D311D42E0000F3F
:10095000111F221F331F4A95D1F7B801C9011F91FA
:100960000F910895CF92DF92EF92FF92CF93DF9392
:100970006B017C010E948804EB010EC00E94880478
:100980006C1B7D0B683E734038F081E0C81AD108BB
:10099000E108F108C851DC4FC114D104E104F104AD
:1009A00069F7DF91CF91FF90EF90DF90CF9008959E
:1009B000789484B5826084BD84B5816084BD85B53A
:1009C000826085BD85B5816085BDEEE6F0E0808101
:1009D00081608083E1E8F0E0108280818260808322
:1009E000808181608083E0E8F0E0808181608083A5
:1009F000E1EBF0E0808184608083E0EBF0E08081D7
:100A000081608083E1E9F0E0808182608083808181
:100A100081608083E0E9F0E0808181608083E1EAA9
:100A2000F0E0808182608083808181608083E0EA61
:100A3000F0E0808181608083E1E2F1E0808182608A
:100A40008083808181608083E0E2F1E08081816049
:100A50008083EAE7F0E08081846080838081826027
:100A60008083808181608083808180688083109210
:100A7000C1000895FC0184859585FC01E05CFF4F71
:100A800020813181FC01EE5BFF4F80819181281B29
:100A9000390B2F733327C9010895FC01848595858F
:100AA000FC01E05CFF4F40815181FC01EE5BFF4F98
:100AB000208131814217530741F00190F081E02DF0
:100AC000E80FF91F208130E002C02FEF3FEFC9018E
:100AD0000895FC0184859585FC01E05CFF4F408111
:100AE0005181FC01EE5BFF4F20813181421753079A
:100AF00081F0A081B181A80FB91F8C912081318133
:100B00002F5F3F4F2F73332731832083282F30E00F
:100B100002C02FEF3FEFC9010895FC0181A1882396
:100B200029F0A489B5898C9186FFFBCF11A2089585
:100B3000CF93DF93FC0126853785D901A05CBF4F99
:100B40008D919C91119701968F739927E901CE5B46
:100B5000DF4F4881598184179507D9F30D90BC91D7
:100B6000A02DA20FB31F6C93A685B785A05CBF4FC5
:100B700011969C938E93A689B7892C9181E090E081
:100B8000078C02C0880F991F0A94E2F7282B2C9338
:100B900081E081A30488F589E02D808180648083D1
:100BA00081E090E0DF91CF910895FB01E05CFF4F81
:100BB000208131812F5F3F4F2F733327DB01AE5BE5
:100BC000BF4F4D915C912417350739F0A081B18159
:100BD000A60FB71F8C9331832083089508951F9229
:100BE0000F920FB60F9211240BB60F922F933F93D3
:100BF0004F935F936F937F938F939F93AF93BF9325
:100C0000EF93FF938091C00082FD07C08091C600E2
:100C10006FEF74E00E94D50502C08091C600FF917D
:100C2000EF91BF91AF919F918F917F916F915F9164
:100C30004F913F912F910F900BBE0F900FBE0F90D1
:100C40001F90189508951F920F920FB60F921124BE
:100C50000BB60F922F933F934F935F936F937F93B6
:100C60008F939F93AF93BF93EF93FF938091C800AF
:100C700082FD07C08091CE0067E774E00E94D50531
:100C800002C08091CE00FF91EF91BF91AF919F91F3
:100C90008F917F916F915F914F913F912F910F9025
:100CA0000BBE0F900FBE0F901F90189508951F92C6
:100CB0000F920FB60F9211240BB60F922F933F9302
:100CC0004F935F936F937F938F939F93AF93BF9354
:100CD000EF93FF938091D00082FD07C08091D600F2
:100CE0006FEE73E00E94D50502C08091D600FF919F
:100CF000EF91BF91AF919F918F917F916F915F9194
:100D00004F913F912F910F900BBE0F900FBE0F9000
:100D10001F90189508951F920F920FB60F921124ED
:100D20000BB60F922F933F934F935F936F937F93E5
:100D30008F939F93AF93BF93EF93FF938091300175
:100D400082FD07C08091360167E673E00E94D505F9
:100D500002C080913601FF91EF91BF91AF919F91B9
:100D60008F917F916F915F914F913F912F910F9054
:100D70000BBE0F900FBE0F901F90189581E093E06F
:100D80000E943A05892B11F00E94EE058FED92E04A
:100D90000E943A05892B11F00E9422068DEB92E009
:100DA0000E943A05892B11F00E9456068BE992E0C9
:100DB0000E943A05892B11F00C948A0608951F921F
:100DC0000F920FB60F9211240BB60F922F933F93F1
:100DD0008F939F93EF93FF932091FB043091FC043A
:100DE0008091FD049091FE042817390731F4809119
:100DF000C1008F7D8093C10014C0E091FD04F0918B
:100E0000FE04E554FB4F20818091FD049091FE0487
:100E100001968F7399279093FE048093FD0420938D
:100E2000C600FF91EF919F918F913F912F910F906D
:100E30000BBE0F900FBE0F901F9018951F920F9230
:100E40000FB60F9211240BB60F922F933F938F93EF
:100E50009F93EF93FF9320917304309174048091DA
:100E60007504909176042817390731F48091C900F0
:100E70008F7D8093C90014C0E0917504F0917604D1
:100E8000ED5CFB4F20818091750490917604019672
:100E90008F73992790937604809375042093CE00E6
:100EA000FF91EF919F918F913F912F910F900BBEEA
:100EB0000F900FBE0F901F9018951F920F920FB6B4
:100EC0000F9211240BB60F922F933F938F939F9302
:100ED000EF93FF932091EB033091EC038091ED03AE
:100EE0009091EE032817390731F48091D1008F7D5E
:100EF0008093D10014C0E091ED03F091EE03E5552D
:100F0000FC4F20818091ED039091EE0301968F7349
:100F100099279093EE038093ED032093D600FF91E1
:100F2000EF919F918F913F912F910F900BBE0F905A
:100F30000FBE0F901F9018951F920F920FB60F9231
:100F400011240BB60F922F933F938F939F93EF93A0
:100F5000FF93209163033091640380916503909126
:100F600066032817390731F4809131018F7D809312
:100F7000310114C0E0916503F0916603ED5DFC4F13
:100F80002081809165039091660301968F73992764
:100F9000909366038093650320933601FF91EF9150
:100FA0009F918F913F912F910F900BBE0F900FBE8D
:100FB0000F901F901895CF92DF92EF92FF92CF93F0
:100FC000DF93EC016A017B01411581EE5807610551
:100FD0007105F9F0EC89FD8981E090E008A002C07C
:100FE000880F991F0A94E2F7808360E079E08DE32F
:100FF00090E0A70196010E94610B2150310941093F
:1010000051095695479537952795211580E1380761
:1010100098F0EC89FD89108260E874E88EE190E038
:10102000A70196010E94610B215031094109510924
:101030005695479537952795E889F9893083EA8948
:10104000FB89208319A2EE89FF89408181E090E02D
:101050009C010C8C02C0220F331F0A94E2F7422B32
:101060004083EE89FF8940819C010D8C02C0220FD4
:10107000331F0A94E2F7422B4083EE89FF894081B7
:101080009C010E8C02C0220F331F0A94E2F7422B00
:101090004083EE89FF8920810F8C02C0880F991F41
:1010A0000A94E2F7809582238083DF91CF91FF90AD
:1010B000EF90DF90CF900895CF9310920403109299
:1010C000030388EE93E0A0E0B0E0809305039093E3
:1010D0000603A0930703B09308032BE632E0309396
:1010E0000203209301034FEF54E050930E0340930B
:1010F0000D034BEB54E05093100340930F0345EC6A
:1011000050E0509312034093110344EC50E050938D
:1011100014034093130340EC50E0509316034093A4
:10112000150341EC50E0509318034093170342EC31
:1011300050E050931A034093190346EC50E050934B
:101140001C0340931B03C4E0C0931D03F3E0F09322
:101150001E03E7E0E0931F0375E07093200361E056
:10116000609321031092E2021092E1028093E30265
:101170009093E402A093E502B093E6023093E0027C
:101180002093DF0247E754E05093EC024093EB02D8
:1011900043E354E05093EE024093ED024DEC50E0F7
:1011A0005093F0024093EF024CEC50E05093F20267
:1011B0004093F10248EC50E05093F4024093F30264
:1011C00049EC50E05093F6024093F5024AEC50E0AF
:1011D0005093F8024093F7024EEC50E05093FA021D
:1011E0004093F902C093FB02F093FC02E093FD02EE
:1011F0007093FE026093FF021092C0021092BF0231
:101200008093C1029093C202A093C302B093C40220
:101210003093BE022093BD024FEE53E05093CA02BA
:101220004093C9024BEA53E05093CC024093CB0267
:1012300045ED50E05093CE024093CD0244ED50E096
:101240005093D0024093CF0240ED50E05093D20231
:101250004093D10241ED50E05093D4024093D30229
:1012600042ED50E05093D6024093D50246ED50E057
:101270005093D8024093D702C093D902F093DA0278
:10128000E093DB027093DC026093DD0210929E0219
:1012900010929D0280939F029093A002A093A102BE
:1012A000B093A20230939C0220939B0287E693E0C6
:1012B0009093A8028093A70283E293E09093AA02FE
:1012C0008093A90285E391E09093AC028093AB02F6
:1012D00084E391E09093AE028093AD0280E391E0CD
:1012E0009093B0028093AF0281E391E09093B202B9
:1012F0008093B10282E391E09093B4028093B302B1
:1013000086E391E09093B6028093B502C093B70252
:10131000F093B802E093B9027093BA026093BB02F3
:10132000CF910895CF92DF92EF92FF920F931F9388
:10133000CF93DF936C01EB017A01E60EF71E00E01C
:1013400010E00BC06991D601ED91FC910190F08104
:10135000E02DC6011995080F191FCE15DF0591F76D
:10136000C801DF91CF911F910F91FF90EF90DF9017
:10137000CF9008956115710581F0DB010D9000207B
:10138000E9F7AD0141505109461B570BDC01ED91C6
:10139000FC910280F381E02D199480E090E00895A3
:1013A000DC01ED91FC910190F081E02D19940F93F7
:1013B0001F93CF93DF93EC016DE00E94D0098C0165
:1013C0006AE0CE010E94D0099C01200F311FC901A3
:1013D000DF91CF911F910F9108950F931F93CF939A
:1013E000DF93EC010E94BA098C01CE010E94D7095B
:1013F0009801280F391FC901DF91CF911F910F91DB
:1014000008954F925F926F927F929F92AF92BF9298
:10141000CF92DF92EF92FF920F931F93CF93DF93C0
:10142000CDB7DEB7A1970FB6F894DEBF0FBECDBF24
:101430005C016A017B01922E19A281E0821710F0F3
:101440008AE0982E8E010F5D1F4F492C512C612C84
:10145000712CC701B601A30192010E94610B8C2D72
:10146000929E80191124015011098A3010F4805D78
:1014700001C0895CF801808369017A01C114D1043B
:10148000E104F10431F7B801C5010E94BA09A1963F
:101490000FB6F894DEBF0FBECDBFDF91CF911F9185
:1014A0000F91FF90EF90DF90CF90BF90AF909F9003
:1014B0007F906F905F904F9008952115310541F412
:1014C000DC01ED91FC910190F081E02D642F1994E5
:1014D0000C94010A9A01462F50E060E070E00C94F1
:1014E0005D0A8230A9F028F4882349F0813049F55B
:1014F00009C0843009F1E8F0853019F520C0109258
:101500006E00089580916F008D7F80936F00089525
:10151000809170008D7F8093700081E08093B00097
:101520008091B100887F84608093B1001092B300F5
:10153000089510927100089510927200089510920B
:1015400073000895CF93C82F809100028C1307C0B9
:10155000EAEEF1E084919FEF9093000201C08FEFDB
:101560000E94710A60E08C2FCF910C947F021F9231
:101570000F920FB60F9211240BB60F922F933F9339
:101580004F935F936F937F938F939F93AF93BF938B
:10159000EF93FF938091460590914705A0914805F0
:1015A000B0914905892B8A2B8B2B51F190914305E2
:1015B000E0914405F09145058081892780838091E1
:1015C000460590914705A0914805B0914905181628
:1015D00019061A061B06C4F480914605909147052A
:1015E000A0914805B09149050197A109B1098093DF
:1015F000460590934705A0934805B093490504C05C
:10160000809100020E94A20AFF91EF91BF91AF91D9
:101610009F918F917F916F915F914F913F912F910A
:101620000F900BBE0F900FBE0F901F901895AF92AA
:10163000BF92CF92DF92EF92FF920F931F93CF93BF
:10164000DF936C017B01C0E0D0E000E010E0F60128
:10165000EC0FFD1F4AE050E06281C7010E946A0A58
:101660005C016EE2C7010E94D0098A0D9B1D080F24
:10167000191F2196C330D10551F74AE050E0F60119
:101680006581C7010E946A0A080F191FC801DF910E
:10169000CF911F910F91FF90EF90DF90CF90BF906F
:1016A000AF9008958BE792E090934B0580934A05A5
:1016B00010924C0510924D0510924E0510924F0558
:1016C0000895A1E21A2EAA1BBB1BFD010DC0AA1F83
:1016D000BB1FEE1FFF1FA217B307E407F50720F09B
:1016E000A21BB30BE40BF50B661F771F881F991F16
:1016F0001A9469F760957095809590959B01AC015F
:10170000BD01CF0108950790F691E02D1994F8944A
:02171000FFCF09
:10171200FF426C696E6B2074657374696E6720702A
:10172200726F6772616D202D207665722E20312EC8
:10173200303000436F73696E6F204D6567612032F0
:1017420035363020657874656E73696F6E00526F3E
:10175200646F6C666F2047696F6D65747469203CB5
:1017620067696F6D6574746940656E6E65656E6EEE
:10177200652E636F6D3E0000000000980592093AE5
:0E1782000569054D058D0500000000170B00E0
:00000001FF
